:1000000000000120C12B0000E92B0000EB2B0000B9
:10001000ED2B0000EF2B0000F12B00000000000092
:10002000000000000000000000000000C906000001
:10003000F52B000000000000E9060000F92B00008D
:1000400065220000FB2B000021280000FB2B000094
:10005000FB2B0000FB2B00002D230000FB2B0000DE
:10006000FB2B0000FB2B0000FB2B0000FB2B0000F8
:10007000FB2B0000FB2B0000FB2B0000FB2B0000E8
:10008000FB2B0000F1070000FB2B0000FB2B000006
:10009000FB2B0000FB2B0000FB2B0000FB2B0000C8
:1000A000FB2B0000FB2B0000FB2B0000FB2B0000B8
:1000B000FB2B0000FB2B00000000000000000000F4
:1000C000FB2B0000FB2B0000FB2B0000FB2B000098
:1000D000FB2B0000FB2B0000FB2B000000000000AE
:1000E0000000000000000000000000000000000010
:1000F0000000000000000000000000000000000000
:1001000000000000000000000000000000000000EF
:1001100000000000000000000000000000000000DF
:1004000010B5054C237833B9044B13B10448AFF34E
:1004100000800123237010BD740000200000000044
:10042000442F0000084B10B51BB108490848AFF332
:1004300000800848036803B910BD074B002BFBD0B0
:10044000BDE81040184700BF000000007800002001
:10045000442F00007000002000000000154B002B0E
:1004600008BF134B9D46A3F5803A00218B460F46EB
:100470001348144A121A00F065F80F4B002B00D0F5
:1004800098470E4B002B00D0984700200021040015
:100490000D000D48002802D00C48AFF3008000F09A
:1004A0002BF82000290002F045FB00F011F800BFF6
:1004B0000000080000000120000000000000000013
:1004C000740000205812002000000000000000000E
:1004D00008B5074B044613B10021AFF30080054B6C
:1004E0001868836A03B19847204600F033F800BFCC
:1004F000000000001C2F000070B50E4B0E4CE41ADB
:10050000A41000251E46A54204D056F82530984771
:100510000135F8E702F0F6FC084C094BE41AA41088
:1005200000251E46A54204D056F8253098470135CF
:10053000F8E770BD68000020680000206C00002013
:100540006800002002440346934202D003F8011BD6
:10055000FAE77047FEE700BF00B585B000230390BF
:10056000194601AA44F20100ADF80430029300F0EC
:1005700003F805B05DF804FBBFF34F8F0549064B48
:10058000CA6802F4E0621343CB60BFF34F8F00BF31
:10059000FDE700BF00ED00E00400FA0572B6024A74
:1005A000136801331360704790000020034A1368FA
:1005B000013B136003B962B6704700BF9000002092
:1005C00038B5430704461CBF20F00704083400F088
:1005D00089FF0E4B1D689DB10D4A136840F6F771F7
:1005E0001C448C4207D8A34205D21D44146001F07C
:1005F00021F8284638BD002501F01CF8284638BDF2
:10060000044D25F007051D60E6E700BF98000020B7
:1006100094000020A4000020704700BF00F10803F0
:100620004FF0FF310022816080E80C00C36003615D
:10063000704700BF00230361704700BF43684B60F1
:100640009A688A609A68516099600861036801330A
:100650000360704730B40D686B1C11D000F10802C4
:1006600000E01A4653681C68A542FAD24B609960B4
:100670008A605160086103680133036030BC7047D1
:1006800002695368F2E700BF4268816803699160BC
:100690008268416851605A68904204BF82685A601B
:1006A0000022026118680138186070470548006828
:1006B00080F3088862B661B6BFF34F8FBFF36F8FC8
:1006C00000DF00BF00000000064B19680868B0E8B2
:1006D000F04F80F30988BFF36F8F4FF0000080F375
:1006E0001188704718110020EFF30980BFF36F8F56
:1006F000144B1A681EF0100F08BF20ED108A20E975
:10070000F04F10604DF8043D4FF0200080F3118849
:10071000BFF34F8FBFF36F8F01F0D2F84FF000009F
:1007200080F3118808BC19680868B0E8F04F1EF023
:10073000100F08BFB0EC108A80F30988BFF36F8FE9
:10074000704700BF18110020202383F31188FEE7B3
:1007500030B46FF002034FF08075074C40F8081C6E
:1007600040F8202C40F8045C40F80C4C40F8243C45
:1007700030BC4438704700BF490700000F4C08B533
:10078000E02384F8223000F059F80D4B0D4A002187
:100790001960D4F8883043F47003C4F88830536883
:1007A00043F040435360236943F010032361FFF794
:1007B0007DFF202383F31188FEE700BF00ED00E0FA
:1007C0009C10002030EF00E0202383F31188024AC0
:1007D00013680133136070479C100020034A1368AC
:1007E000013B13600BB983F3118870479C10002004
:1007F00000B50F490F4B00220A6083B009680191D0
:1008000001991A601B680093009BEFF3118320236A
:1008100083F3118800F07CFE20B1074B4FF080522B
:100820005A6040BF002383F3118803B05DF804FBD6
:10083000001101404011014000ED00E070B50020C2
:1008400001F0D2FC084D094B094901222026E02481
:100850004FF40030C3F80865C3F804232A601A6017
:1008600081F81143086070BD08100140001001407C
:1008700000E100E070B5064682B072B62A4CD4F8AA
:10088000045501F065F900283AD02848284AB042BA
:1008900028BF30462B1823F07F4301210026C4F8DF
:1008A0000813C4F840351660136800934FF4803382
:1008B000009AC4F80433BFF34F8F20B31D4B20BF01
:1008C000D3F80011D3F804210A43F8D0164A1A4984
:1008D0004FF48033C2F808330024D2F804350C609A
:1008E00009680191AB424FF00101019CC2F8041369
:1008F00016D35B1B984228BF184608B100F000FED3
:1009000062B602B070BD0C4AC4F80833D4F804359E
:100910001060126801929D42019AC4F80413EFD945
:1009200003F18073E5E700BF00100140FDFFFF0009
:100930004011014000E100E00011014070B50646A1
:100940000D4651B300FB01F04D30FFF739FE044670
:1009500000F14C0340B32360E6632564FFF734FFE6
:10096000226CE36B2168A16003FB02F39A1A0A442C
:100970000B4400204FF0FF31A063E26061646360CC
:1009800004F11000A164FFF749FE04F12400FFF711
:1009900045FEFFF723FF204670BD4C20FFF710FEF9
:1009A000044603460028D6D10024F4E72DE9F04799
:1009B000044684B01D4601928846FFF705FFA26BEE
:1009C000E36BA04F4FF000099A424E4671D3022DBF
:1009D00000F0F0800198002800F05181B9F1000F7B
:1009E00000F0CE80FFF7FAFE00F07CFDFFF7ECFE92
:1009F000636C013308BF6664A36C013308BFA6644F
:100A0000FFF7ECFE01A902A801F06CF8002840F005
:100A1000EF80FFF7D9FEA26BE36B9A4261D0FFF73C
:100A2000DDFEFFF7D1FEA36C002B14DD636A93B1EA
:100A300004F1240907E0A36C013BA364A36C002B21
:100A400009DD636A3BB1484600F0F0FF0028F2D0B0
:100A500001F078F8EFE74FF0FF33A364FFF7BEFE35
:100A6000FFF7B2FE636C002B14DD236993B104F130
:100A7000100907E0636C013B6364636C002B09DDC4
:100A800023693BB1484600F0D1FF0028F2D001F0C5
:100A900059F8EFE74FF0FF336364FFF79FFE00F074
:100AA000C9FDFFF791FEA26BE36B9A424FF001097B
:100AB0008DD2226C002A40F0E9802568002D63D099
:100AC000A36B626A0133A3632AB104F1240000F02E
:100AD000ADFF012864D0FFF781FE012004B0BDE81E
:100AE000F08704F11009FFF779FE4846019900F0FC
:100AF00013FFFFF769FEA36C002B14DD636A93B14B
:100B000004F1240A07E0A36C013BA364A36C002B4F
:100B100009DD636A3BB1504600F088FF0028F2D03F
:100B200001F010F8EFE74FF0FF33A364FFF756FE34
:100B3000FFF74AFE636C002B06DC0FE0636C013BA1
:100B40006364636C002B09DD23693BB1484600F008
:100B50006DFF0028F2D000F0F5FFEFE74FF0FF3314
:100B60006364FFF73BFE00F065FD002899D14FF06C
:100B700080537B6040BFBFF34F8FBFF36F8F90E711
:100B800002A800F0A3FF2DE7606801F04FF8A36B07
:100B9000626A65600133A363002A96D100289AD067
:100BA000284B4FF080525A6040BFBFF34F8FBFF3C6
:100BB0006F8F90E7226C002A3FF47FAF4146E068D8
:100BC00002F094F9236CE26821685B421A448A427D
:100BD000E26005D262681344E360022D7FF470AFD7
:100BE000A36B002B3FF46CAFA36B013BA36367E7E0
:100BF000FFF7EAFDA36C002B14DD636A93B104F1E7
:100C0000240507E0A36C013BA364A36C002B09DD62
:100C1000636A3BB1284600F009FF0028F2D000F0DB
:100C200091FFEFE74FF0FF33A364FFF7D7FDFFF726
:100C3000CBFD636C002B17DD2369ABB104F110050C
:100C40000AE000BF00ED00E0636C013B6364636C8D
:100C5000002B09DD23693BB1284600F0E7FE0028A0
:100C6000F2D000F06FFFEFE74FF0FF336364FFF760
:100C7000B5FD00F0DFFC002004B0BDE8F087009077
:100C8000FFF7ACFD009804B0BDE8F08741466DB9B0
:100C9000A06802F02BF9A168236C62680B449342B0
:100CA000A360FFF40DAF2368A36009E7E06802F0DA
:100CB0001DF9236CE26821685B421A448A42E260B3
:100CC0008BD287E7F0B5044683B01646EFF3118563
:100CD000202282F31188806BE26B90421AD3022BA0
:100CE00004D0002085F3118803B0F0BD226C01937D
:100CF00012BB2768002F45D0A36B0133A363A36CFD
:100D0000013331D0A36C0133A364012085F3118832
:100D100003B0F0BD226C002AEBD0002B37D1A068C5
:100D200002F0E4F8A168236C62680B449342A3606C
:100D3000E2D32368A360DFE7E06802F0D7F8226C13
:100D4000E1682068019B524211448142E16004D273
:100D500061680A44E260022BCED1A36B002BCBD09A
:100D6000A36B013BA363C7E7636A002BCDD004F1FB
:100D7000240000F05BFE0028C7D0002EC5D0012063
:100D80003060AFE7606800F051FF6760B4E7E0688B
:100D9000019302F0ABF8226CE1682068019B52429B
:100DA00011448142E160D6D2D2E700BF2DE9F0477D
:100DB000044684B09A4688460192FFF705FDA36B6E
:100DC000A64E00273D46002B40F09C80019800284D
:100DD00000F0F880002F00F0E180FFF7FFFC00F04A
:100DE00081FBFFF7F1FC636C013308BF6564A36C02
:100DF000013308BFA564FFF7F1FC01A902A800F0C8
:100E000071FE002840F0E580FFF7DEFCA36B0BB31A
:100E1000FFF7E4FCFFF7D8FCA36C002B40F39F80A6
:100E2000636A002B00F09B8004F124090AE0A36CA4
:100E3000013BA364A36C002B40F39180636A002BF9
:100E400000F08D80484600F0F1FD0028EFD000F062
:100E500079FEECE7FFF7C2FC2368002B00F0AA80C4
:100E600004F124094846019900F056FDFFF7ACFC57
:100E7000A36C002B06DC0FE0A36C013BA364A36C06
:100E8000002B09DD636A3BB1484600F0CFFD002826
:100E9000F2D000F057FEEFE74FF0FF33A364FFF707
:100EA0009DFCFFF791FC636C002B14DD236993B16B
:100EB00004F1100907E0636C013B6364636C002B71
:100EC00009DD23693BB1484600F0B0FD0028F2D0AF
:100ED00000F038FEEFE74FF0FF336364FFF77EFC6E
:100EE00000F0A8FB38B94FF08053736040BFBFF3E8
:100EF0004F8FBFF36F8FFFF767FCA36B0127002BAA
:100F00003FF464AF226CE5684AB16368A91899425E
:100F1000E16024BF2168E160404601F0E7FFBAF1DB
:100F2000000F40F09D80A36B2268013BA363002A61
:100F300000F0A7802369002B00F0958004F11000D9
:100F400000F074FD012840F08E80444B4FF0805239
:100F50005A6040BFBFF34F8FBFF36F8F83E04FF0F6
:100F6000FF33A364FFF73AFCFFF72EFC636C002B02
:100F700018DD2369B3B104F1100907E0636C013B8C
:100F80006364636C002B0DDD23695BB1484600F0A0
:100F90004DFD0028F2D000F0D5FDEFE702A800F0EB
:100FA00095FD1AE74FF0FF336364FFF717FC00F07D
:100FB00041FBA0E7FFF708FC606800F0E9FDFFF7E0
:100FC0000DFC4DE70090FFF709FC009804B0BDE868
:100FD000F087FFF7F9FBA36C002B14DD636A93B174
:100FE00004F1240507E0A36C013BA364A36C002B70
:100FF00009DD636A3BB1284600F018FD0028F2D0F5
:1010000000F0A0FDEFE74FF0FF33A364FFF7E6FB2E
:10101000FFF7DAFB636C002B14DD236993B104F155
:10102000100507E0636C013B6364636C002B09DD12
:1010300023693BB1284600F0F9FC0028F2D000F00B
:1010400081FDEFE74FF0FF336364FFF7C7FB00F06C
:10105000F1FA002004B0BDE8F08700BF00ED00E029
:10106000636AE5602BB9FFF7B9FB012004B0BDE866
:10107000F08704F1240000F0D9FC00287FF465AF6C
:10108000F1E700F015FE606054E700BF10B4074BB5
:101090001A682AB19A6812B15DF8044B70470122B0
:1010A00003EBC20443F832106060F5E74012002001
:1010B00038B504460D46FFF787FB636C013304BF68
:1010C00000236364A36C013304BF0023A364FFF710
:1010D00085FBA36B23B9294604F1240000F066FCCC
:1010E000FFF772FBA36C002B14DD636A93B104F16C
:1010F000240507E0A36C013BA364A36C002B09DD6E
:10110000636A3BB1284600F091FC0028F2D000F061
:1011100019FDEFE74FF0FF33A364FFF75FFBFFF725
:1011200053FB636C002B14DD236993B104F11005AC
:1011300007E0636C013B6364636C002B09DD23698A
:101140003BB1284600F072FC0028F2D000F0FAFC17
:10115000EFE74FF0FF336364BDE83840FFF73EBB75
:101160002DE9F84F0C9CDDF8288081460E46154687
:101170009A462746002C00F094804820FFF720FA7A
:101180000446002800F09880AD002A460763A52198
:101190003846FFF7D7F93378226B84F83430043DB2
:1011A0003378154425F007053BB1737884F8353062
:1011B000737813B1B37884F83630B8F1020F4FF07A
:1011C0000007C34604F1040628BF4FF0020B304667
:1011D00084F83770E763C4F82CB0C4F838B0FFF770
:1011E00029FA04F11800FFF725FACBF10303A361F4
:1011F0002764246184F84470646252464946284654
:10120000FFF7A6FA0B9B206003B11C60FFF7DCFA26
:101210003D4A3E4D1368013313602B68002B3AD0D2
:101220003B4F3B6873B3E36ADFF80CC1DFF80CE1B6
:101230003848DCF80020012404FA03F903EB8303A7
:1012400000EB8300DEF8003049EA02022344314615
:10125000CEF80030CCF80020FFF7F0F9FFF7BEFA27
:101260003B68ABB12B68DB6A984511D92A4B4FF02C
:1012700080525A6040BFBFF34F8FBFF36F8F20463D
:10128000BDE8F88F2B68DB6A984528BF2C60CAE759
:101290002046BDE8F88F2C601368012B10D01C4F3E
:1012A000C1E79000FFF78CF9074600287FF465AF8F
:1012B0004FF0FF30BDE8F88F3846FFF7ADF9F7E79C
:1012C0001448DFF87CA0DFF87C90114FFFF7A6F9F7
:1012D0001248FFF7A3F91248FFF7A0F95046FFF7AD
:1012E0009DF94846FFF79AF90E48FFF797F90E481F
:1012F000FFF794F90D48FFF791F90D4A0D4BC2F82D
:1013000000A0C3F800908EE76C1100201811002097
:10131000A8100020D810002000ED00E0EC10002004
:10132000001100201C110020B0100020C41000206B
:10133000A410002038110020701100203C11002062
:1013400040110020541100202DE9F843F020FFF750
:1013500037F9002873D005464820FFF731F90446D5
:10136000002874D00563F0222846A521FFF7EAF88B
:10137000206B4A4F0025492144224C2304F10408E4
:1013800084F8341084F8352084F8363000F1EC0607
:1013900084F837504046E562A563E563FFF74AF9F4
:1013A00004F11800FFF746F926F0070603232A4642
:1013B0002564A3613A4984F844503046246164624C
:1013C000FFF7C6F9374B20601C60FFF7FDF9364A7E
:1013D0001368013313603B68002B32D0334D2B6808
:1013E0001BB93B68DB6A03B93C60E36ADFF8ECE0F9
:1013F0002F4E3048DEF8004001229A4003EB830371
:1014000000EB830033682243013341463360CEF85A
:101410000020FFF713F9FFF7E1F92B6803B13B68F0
:1014200000F052FC01280AD1202383F31188224BBB
:10143000286000221A60BDE8F843FFF79FB9BDE8B5
:10144000F8833C601368012B06D0184DCDE7284681
:10145000BDE8F843FFF7E0B81648DFF88490174E70
:10146000124DFFF7DBF81648FFF7D8F81548FFF7DD
:10147000D5F84846FFF7D2F83046FFF7CFF81248C4
:10148000FFF7CCF81148FFF7C9F81148FFF7C6F885
:10149000104A114BC2F800901E60A6E718110020F8
:1014A000C9170000301100206C110020A810002086
:1014B0003C110020D81000203411002054110020CD
:1014C000EC100020001100201C110020B0100020A2
:1014D000C4100020A410002038110020701100203A
:1014E00040110020024A136801331360704700BFA7
:1014F00014110020014B1868704700BF3411002000
:10150000024A136818441060704700BF341100206D
:101510002DE9F04F3C4B1B6883B0002B43D13B4B74
:101520001A6801321A601F68002F4AD0384B0193A5
:101530001B689F425CD3DFF8EC80364EDFF8F0A0EA
:10154000C146002525E0D9F80030DB68DC68636817
:1015500004F1040B9F42584622D3FFF795F8A36A83
:1015600004F118000BB1FFF78FF8E06A336801222D
:10157000824000EB8000134359460AEB8000336041
:10158000FFF75CF8244BE26A1B68DB6A9A4228BFCB
:101590000125D8F800301B68002BD4D14FF0FF3361
:1015A000019A136004E01D4A13680133136000259B
:1015B0001B4B1B68002B18BF0125284603B0BDE854
:1015C000F08F184B184A1868184914681C6010608E
:1015D0000A6801320A601A6812685AB90C4B019302
:1015E0001A464FF0FF33136013461B689F42A2D286
:1015F0000025DDE71B68064ADB680192DB685B6853
:101600001360134694E700BF14110020341100202A
:1016100060000020701100201811002068110020C7
:1016200074110020A410002038110020A010002008
:10163000D81000202DE9F84FFFF7C6F8314B1A6893
:10164000013A1A601B68002B47D12F4B1B68002BF7
:1016500043D0DFF8C8B02D4FDFF8C490DFF8C48066
:10166000DA4620E0DAF80C20D468251D04F11800D1
:10167000FFF70AF82846FFF707F8E06A3A6806FA23
:1016800000FE00EB80004EEA0202294609EB8000D2
:101690003A60FEF7D3FFD8F80020E16AD26A91429F
:1016A00024BF1B4B1E60DBF800200126002AD9D185
:1016B000184C23686BB123685BB10125FFF728FF45
:1016C00008B1134B1D602368013B23602368002B86
:1016D000F4D10F4B1C68012C05D00024FFF77EF8D5
:1016E0002046BDE8F88F0C4B4FF080525A6040BF47
:1016F000BFF34F8FBFF36F8FFFF770F82046BDE841
:10170000F88F00BF141100206C1100207011002010
:10171000741100206811002000ED00E01C11002071
:10172000D81000201811002070B548B91E4B4FF09A
:1017300080525A6040BFBFF34F8FBFF36F8F70BDB1
:101740001A491B4E0A681B4D01320A600346346871
:10175000286804301C44FEF797FF40B92B681649EF
:10176000D86A0A680123834022EA03030B602A68CF
:10177000336854609C420F4A0FD3104B18681168AD
:101780000431FEF767FF0E4B1A68944238BF1C60A5
:10179000FFF750FF0028C9D070BD0A4B18681168C8
:1017A0000431FEF757FFF3E700ED00E014110020CD
:1017B000341100201811002070110020A410002006
:1017C00060000020381100202DE9F84F334E344DD1
:1017D000344CDFF8E880DFF8D0A0B34607E0236898
:1017E000376801332360FFF725FF002F32D12B68C4
:1017F000002BF4D1DAF800302B4A012B47D92B4BC0
:101800004FF08051596040BFBFF34F8FBFF36F8FD0
:10181000274B1B68DB6A002BE9D11368012BE6D844
:10182000244B254A1B681268224823499B1A012B26
:10183000DDD92368013323601D4B1B68DB6A33B994
:1018400003680868181A012801D9FFF713F8FFF791
:10185000F1FECCE7FEF7B8FFDBF80C30D3F80C90C4
:1018600009F10400FEF710FFD8F800200C4B013AF4
:10187000C8F800201A68013A1A60FEF7AFFFD9F8DD
:101880003000FEF7C9FE4846FEF7C6FEAFE7084B3C
:101890001B68DB6A002BC3D0A9E700BFB010002093
:1018A000AC10002014110020D810002000ED00E042
:1018B0001811002060000020341100206C1100205D
:1018C000104B1B68CBB91049104A0B6013681048C5
:1018D000B3FA83F3C3F11F0303EB83039B00C11827
:1018E00008334A6852684A6003449A4204BF526807
:1018F0004A60084BD2681A607047034B01221A6095
:10190000704700BF141100207411002070110020D6
:10191000D81000201811002038B51D4D2B680C463A
:1019200003F11801FEF796FE28680430FEF7ACFEBE
:1019300040B92B681749D86A0A680123834022EA14
:1019400003030B60631C1CD0134A114913682868F9
:1019500012681C44944244600BD3104B1868096809
:101960000431FEF777FE0E4B1A68944238BF1C60B4
:1019700038BD0C4B18680968BDE838400431FEF7E3
:1019800069BE296808480431BDE83840FEF756BEF4
:10199000181100207011002034110020A410002024
:1019A0006000002038110020C410002038B5194D07
:1019B0002B680C4603F11801FEF740FE286804303E
:1019C000FEF762FE40B92B681349D86A0A68012302
:1019D000834022EA03030B60104B0E4A1868296803
:1019E0001B6804449C424C600BD30D4B1868116873
:1019F0000431FEF72FFE0B4B1A68944238BF1C606F
:101A000038BD094B18681168BDE838400431FEF74D
:101A100021BE00BF181100207011002034110020D9
:101A2000A41000206000002038110020F8B5C36821
:101A3000DC6804F118052846FEF726FE1B4B1B68E0
:101A4000002B2DD1271D1A4E3846FEF71DFEE36AE6
:101A50003568184801229A4003EB83032A4339462C
:101A600000EB83003260FEF7E9FD134BE26A1B686E
:101A7000DB6A9A4282BF114B01201860104B1A6832
:101A8000126898BF002032B11A680E4BD268D26833
:101A900052681A60F8BD0B4B4FF0FF321A60F8BD68
:101AA00029460948FEF7CAFDDFE700BF14110020F0
:101AB00070110020D810002018110020741100208F
:101AC000A4100020600000201C110020034A044BD9
:101AD00012681B6880E80C00704700BFA01000204F
:101AE00034110020F8B50D460446FEF76DFE2B6854
:101AF00012495A1C08681BD0114E27683268974259
:101B0000626801D090420ED2871ABB420BD91B1AD1
:101B1000134430680A682B6084E805000025FEF74E
:101B20005DFE2846F8BD0125FEF758FE2846F8BDA3
:101B30000025FEF753FE2846F8BD00BF34110020F3
:101B4000A0100020014B01221A6070477411002080
:101B5000054B1B682BB9054B1868B0FA80F040099B
:101B600070470020704700BF1C1100207411002036
:101B7000054B1B6833B1054B1B68002B0CBF0220C3
:101B80000020704701207047A81000201411002089
:101B9000002842D02DE9F041214CC36A2268D26A64
:101BA000934212D28269002A04DB2268D26AC2F10F
:101BB000030282611B4D426903EB830305EB830340
:101BC0009A4204D02368DB6AC362BDE8F08100F169
:101BD000040807464046FEF757FDF8B9FB6A124E67
:101BE00003EB830255F8222032B93268012101FA51
:101BF00003F322EA0303336023683268D86AF86289
:101C000001238340134300EB80003360414605EB22
:101C10008000BDE8F041FEF711BD7047024EEBE7D2
:101C200018110020D810002070110020002838D092
:101C3000F8B5C36BC16A826B013B9142C36300D0AC
:101C40000BB10020F8BD071D04463846FEF71CFD09
:101C500078B9E36A1448154E03EB830250F822204A
:101C60004AB93268012101FA03F322EA030333601F
:101C700001E00D480D4EA36B3268E362012505FAC1
:101C800003FCC3F1030E03EB83034CEA020200EBF7
:101C900083003946C4F818E03260FEF7CFFC2846CE
:101CA000F8BD0020704700BFD81000207011002040
:101CB000044B1A681AB11968CA6B0132CA631868F2
:101CC000704700BF18110020F0B5184C85B0FEF722
:101CD0007BFD25688DB1FEF781FD206858B100239A
:101CE0001349019102220092039302935022114959
:101CF0001148FFF735FA05B0F0BD104F104E3846C9
:101D0000FEF78CFC3046FEF789FC0E4A0E4B17603E
:101D100010212A4620201E60FEF710FE20600028B9
:101D2000D9D00A49FFF7B2F9D5E700BFA4110020C6
:101D3000B0110020282F0000511E00007C1100204F
:101D40009011002078110020AC110020202F0000FD
:101D50002DE9F04F83B0F9B1064628200D4698468C
:101D60001746FEF72DFC0446B0B1DFF88090FEF771
:101D70002BFDD9F80020A2B1FEF730FD0C9B2660A8
:101D8000201DA561E761C4F820806362FEF752FC64
:101D9000204603B0BDE8F08F0024204603B0BDE824
:101DA000F08FDFF84CB0DFF84CA001925846FEF7F8
:101DB00035FC5046FEF732FC09490A4BC1F800B029
:101DC000019AC3F800A010212020FEF7B7FDC9F842
:101DD00000000028D0D00449FFF758F9CCE700BF35
:101DE00078110020AC110020202F0000A411002049
:101DF0007C1100209011002030B5144D2C6885B066
:101E000004B305298DE8060002900BDCFFF7B0FE55
:101E100002280FD0002328681A466946FEF7C6FD3F
:101E200005B030BD1A46204600236946FEF74AFF3A
:101E300005B030BD2868089A00236946FEF7B6FD54
:101E400005B030BD204605B030BD00BFA411002054
:101E50002DE9F04FAB4EAC4DDFF8B0828BB033685C
:101E60001C68002C6ED0DB681C68FFF73BFBFFF79B
:101E700041FBD8F80020A54B904207466CD3844222
:101E8000186040F2A480E11B2868FFF711F9FFF702
:101E9000D1FB40B99E4B4FF080525A6040BFBFF318
:101EA0004F8FBFF36F8F00231A4602A92868FEF7F1
:101EB0007DFF0028D3D0029B002B3BDB049C636991
:101EC00013B1201DFEF7E0FBFFF714FBD8F800303C
:101ED0009842814623D3029AC8F80090092AE2D892
:101EE0000123934013F4047F40F0D68013F0C70F12
:101EF00040F0B6809B06D6D52046FEF78DFBD2E794
:101F0000DB68DF68D3F800B007F1040A5046FEF73B
:101F1000BBFB7B6A38469847FB69012B4BD0336883
:101F20001A68002AECD17B4A764912680A60794A1D
:101F30001360D0E7039B059904989847029B002BF8
:101F4000B1DBBBE7FFF7CEFAFFF7D4FAD8F80030E1
:101F50006E4A9842074620D24FF000090EE0DB6837
:101F6000DC68D3F800B004F1040A5046FEF78CFB9D
:101F7000636A20469847E369012B10D033681A68DA
:101F8000002AECD1634A5F4912680A60614AC8F8C6
:101F900000701360FFF74EFB85E7176073E7A369D6
:101FA0005B449B45514627D26360564B24611868B9
:101FB000FEF750FBE2E7BB695B449B4551462DD2DF
:101FC0007B60504B3F611868FEF744FBA7E7FFF7C3
:101FD00031FB4C4B1B68DB68D3F80C9009F1040A09
:101FE0005046FEF751FBD9F81C30012B29D0D9F807
:101FF00024304846984756E72B68002BBED0CDF8D2
:102000001890CDF81CB00894FFF7B2FD3E480023AD
:102010001A4606A90068FEF7C9FCAFE72B68002B3B
:102020003FF47DAF00230693CDF81CB00897FFF76F
:102030009FFD354800231A4606A90068FEF7B6FC46
:102040006DE7D9F81830C9F81090E218BA42C9F80B
:10205000042032D92B4B51461868FEF7FBFAC6E72D
:10206000039BA16924615A184A4562603AD8C3EBC0
:10207000090399421BD8636A20469847E369012BFC
:102080007FF411AF0399A26900230A44009320460C
:102090001946FFF7B1FE06E7039B246103EB090233
:1020A0004A45A361626021D8002B3FF4FCAE194B76
:1020B000211D1868FEF7CEFAF5E63F1BBB421AD881
:1020C0002B68002B93D000270794CDF8209006971B
:1020D000FFF74EFD0C483B463A4606A90068FEF75E
:1020E00065FC84E74B4501D99342C4D9211D306872
:1020F000FEF7B0FAD7E6074B51461868FEF7AAFA82
:1021000075E700BF78110020A4110020A81100205D
:1021100000ED00E0AC1100204FF0A04310B44FF4EC
:1021200080204FF400344FF400214FF48012C3F8A4
:102130000845C3F80805C3F80815C3F808255DF875
:10214000044B7047084B4FF0A0411B5CD1F80405CD
:10215000012202FA03F323EA00020340C1F8082532
:10216000C1F80C35704700BF302F000030B44FF07D
:10217000A04303224FF400354FF480244FF4002095
:102180004FF48011C3F84427C3F84827C3F84C27FD
:10219000C3F85027C3F80855C3F80845C3F8080525
:1021A000C3F8081530BC704710B50D4C23780BB13F
:1021B000852010BD0B4A6360E3601068A36010F0D7
:1021C0000100236107D04FF080420123C2F8183587
:1021D0002370002010BD072100F080F8F3E700BF56
:1021E000B411002000E100E030B51B4DAB7883B0A6
:1021F000044673B110B14368012098470020FEF7F0
:10220000CDF9EB6800200133EB60FEF7CFF903B0A6
:1022100030BD03F0FF00FEF7C1F964B12A6942B195
:10222000944208D0134601E09C4204D01B68002B66
:10223000FAD122602C61EB68002BE2D1074A0849F1
:102240001360136801934FF0804202200123019C28
:10225000C2F804030B60D4E7B4110020040100406D
:102260000800004010B51A4B1A6882B0A2B10022D3
:102270001A601B6800934FF080430122154C0099AF
:10228000C3F80823A368627033B10CCB0020A260AE
:102290009847A368002BF8D10F4B1A68AAB1002207
:1022A0001A601B6801934FF080430222094C019988
:1022B000C3F8082323690122A27033B10CCB01209B
:1022C000226198472369002BF8D102B010BD00BFEE
:1022D00000010040B411002004010040002810B4A7
:1022E00018DB00F1604303F561434901C9B283F88B
:1022F0000013C3B24009800000F1604000F5614066
:1023000003F01F0201239340C0F8803103605DF8A1
:10231000044B7047C3B2044A03F00F04490122443E
:10232000C9B21176E6E700BFFCEC00E02DE9F0430E
:1023300087B00026C94B01961A68012A00F0048272
:10234000C74B1A68012A00F0F181C64B1A68012AAE
:1023500000F0DE81C44B1A68012A00F0CB81C34B28
:102360001A68012A00F0B881C14B1A68012A00F0EE
:10237000A581C04B1A68012A00F09281BE4B1A68F1
:10238000012A00F07F81BD4B1A68012A00F05981B3
:1023900016F0FF0F1AD0BA4F01250024A30003F155
:1023A00080432E4203F5C0434FEA45050BD0D3F8D6
:1023B000100557F82420D3F81015C0F30420C1F3FA
:1023C000014102B190470134082CE7D1002E02DB15
:1023D00007B0BDE8F083AA4C00224FF0FF33274638
:1023E0000292039301260DF1080894F950104D1C38
:1023F0002DD0C9B221F0C00006AB4FEAD00E03EBDE
:102400000E0201F0070312F80CCC06FA03F31CEAE3
:10241000030F1CD03D18890995F9305057F82590C5
:10242000B9F1000F00F0E880032900F0E8804FEADE
:10243000800E0EF1A04E12F8145CDEF800271D404D
:10244000C2F3014240F0B580032A00F0A2810025CA
:1024500094F95110481C2FD0C9B221F0C00006AB2E
:102460004FEAD00E03EB0E0201F0070312F80CCC7A
:1024700006FA03F31CEA030F1ED007EB000C8909D0
:102480009CF930C057F82C90B9F1000F00F0C680CD
:10249000032900F0C6804FEA800E0EF1A04E12F81C
:1024A00014CCDEF800271CEA030FC2F3014240F00F
:1024B0008D80032A00F0928194F952104A1C2ED08C
:1024C000C9B221F0C00006AB4FEAD00E03EB0E02FA
:1024D00001F0070312F80CCC06FA03F31CEA030F11
:1024E0001DD007EB000C89099CF930C057F82C90DF
:1024F000B9F1000F00F08980032900F088804FEACD
:10250000800E0EF1A04E12F814CCDEF800271CEA63
:10251000030FC2F3014265D1032A00F04C8194F904
:1025200053104B1C2CD0C9B221F0C00006AB4FEAAF
:10253000D00E03EB0E0201F0070312F80CCC06FAE2
:1025400003F31CEA030F1BD007EB000C89099CF96D
:1025500030C057F82C90B9F1000F69D0032969D029
:102560004FEA800E0EF1A04E12F814CCDEF80027D0
:102570001CEA030FC2F3014211D1032A00F0F080DC
:10258000002D3FF425AF4FF0A043019AD3F810354A
:1025900093423FF41DAF029A0193039225E7022A6A
:1025A000EED1032900F02D81B9F1000FE8D0C84722
:1025B000E6E7022A7FF44BAF032900F02B810025C8
:1025C000B9F1000F3FF444AFC84741E7022A7FF456
:1025D00073AF032900F01881B9F1000F3FF46CAF1D
:1025E000C84769E7022A9AD1032900F01081B9F19E
:1025F000000F94D0C84792E703297FF428AF18F85A
:102600000E501D4308F80E5011E7032987D118F822
:102610000EC04CEA030C08F80EC070E703297FF4E3
:102620004BAF18F80EC04CEA030C08F80EC032E7A6
:102630000329A5D118F80EC04CEA030C08F80EC007
:102640008EE700221A601B6805934FF0A043059A9D
:10265000D3F81035019346F0004699E6006100403A
:1026600004610040086100400C61004010610040BE
:1026700014610040186100401C6100407C61004012
:10268000C8110020654AD2F8042317067FF57BAEF7
:1026900000221A601B680493049B46F0800672E6D1
:1026A0005E4AD2F8042352067FF568AE00221A6013
:1026B0001B680493049B46F040065FE6574AD2F835
:1026C000042391067FF555AE00221A601B6804931F
:1026D000049B46F020064CE6504AD2F80423D0066C
:1026E0007FF542AE00221A601B680493049B46F0FB
:1026F000100639E6494AD2F8042314077FF52FAEB5
:1027000000221A601B680493049B46F0080626E624
:10271000424AD2F8042355077FF51CAE00221A6006
:102720001B680493049B46F0040613E63B4AD2F868
:10273000042397077FF509AE00221A601B680493F3
:10274000049B46F0020600E63449D1F8041311F068
:1027500001011CD01E601B680493049B1646EFE524
:1027600003297FF421AF4FF40033DEF8002722F471
:102770004032CEF80027DEF8002701351343EDB2D2
:10278000CEF80037B9F1000F7FF411AFFBE60E462B
:10279000D6E503297FF414AF4FF40033DEF80027A9
:1027A00022F44032CEF80027DEF800271343CEF89B
:1027B0000037012504E703297FF419AF4FF40033F4
:1027C000DEF8002722F44032CEF80027DEF800279A
:1027D00001351343EDB2CEF8003708E703297FF443
:1027E000FBAE4FF40033DEF8002722F44032CEF87F
:1027F0000027DEF8002701351343EDB2CEF800378D
:10280000EAE64FF44033B0E74FF44033EBE74FF4E0
:102810004033D5E74FF44033C0E700BF00600040CD
:1028200070B59B4C237F8EB0002B75D1994AD2F89E
:102830000413890548D4974BD3F80423520704D5D1
:10284000D3F80821002A40F0CA80924BD3F81C210B
:10285000C2B1A28AA07D8E4992B282424FF000029C
:10286000C3F81C2180F0A980D3F81C210692069A97
:10287000888A8A8A8D6880B20132285C92B28A8204
:10288000C3F81C05834BD3F84421DAB10022C3F806
:102890004421D3F84411A27E04910499002A40F007
:1028A0008980E27D7A4B6AB10022587ED968DA7558
:1028B00001228DF830000B918DF828200AA893E8AA
:1028C000060090470EB070BDD2F824110029B2D096
:1028D000C2F82431D2F82411A37E07914FF401717C
:1028E0000798C2F808130BB901235360694A022301
:1028F0008DF82830D2F88034C2F88034E07DE26868
:102900000D9300238DF83000E375237621680B9238
:1029100063680AA8984798E75E4BD3F82421002AF9
:1029200040F09380D3F8101161B1C3F81021D3F8AF
:10293000101103910399D3F83C15E07DC9B2884288
:1029400000F0AA80534BD3F84421B2B10022C3F85F
:102950004421D3F84411E07D019101994C4960B1C3
:10296000D3F83C35C8688DF830300123CA750B9018
:102970008DF828300AA80AC99847464BD3F8202179
:10298000002A9FD00022C3F82021D3F82011A07D77
:10299000009100993E49002894D0D3F84C058B68EB
:1029A0008DF830008A750B938DF828200AC90AA883
:1029B000984787E701221A6073E7D3F81C31059323
:1029C000059B00283FF45EAF8B688DF830008A7558
:1029D0000B938DF828200AC90AA8984752E7E17D91
:1029E0002B4A002970D00021C3F80811D3F8081130
:1029F00008910899D068517ED3F818354354537E16
:102A0000D17D0133DBB25376627E214B8A427FF463
:102A10001CAF1A7E002A6DD19B7E13B91D4B01227B
:102A20005A601C4AE06863684FF40171C2F80813E9
:102A3000627E8DF83020002501220B902168E5751B
:102A40008DF828200AA89847FFE60022C3F8242121
:102A5000D3F82411029102218DF828100299D3F89D
:102A60008014C3F880140D91D3F83C15E368E27527
:102A700022768DF830100B93216863680AA8984776
:102A8000044BD3F84421002A3FF477AF5EE700BF40
:102A90002012002000200040217EF1B1D3F8006216
:102AA000E17526F02001E568C3F8001226698DF86B
:102AB000300001238DF82830227621680B95E660DE
:102AC00063680AA898473DE7C3F80811D3F80821BE
:102AD0000992099AD3F8183596E7E268E17501235F
:102AE0008DF830008DF828300B9294E80A000AA87F
:102AF000984727E7DE685D7E1869DA7501210022B4
:102B0000D8601A765A768DF828100B968DF83050CA
:102B100093E806000AA8904797E600BF0120FFF758
:102B200011BB00BF08B50020FFF70CFBC820FEF763
:102B3000FBFDF8E730B585B0FFF736FB70BB00242E
:102B4000FFF714FBFFF7E8FA16490191022223462A
:102B50000092154903944FF4827202941348FEF7D1
:102B6000FFFA134B009301224FF47A712346114868
:102B7000FFF7EEF8104B05461860FEF7BBFC234646
:102B80000246009428460121FFF736F90B4A1369E3
:102B900043F004031361FEF7D7FBFEE7FDF7DCFC0F
:102BA000CDE700BF54120020342F0000252B000079
:102BB0001D2B00003C2F00005012002000ED00E013
:102BC0000649074A074B9B1A03DD043BC858D050FF
:102BD000FBDC00F013F8FDF741FC0000502F000073
:102BE0000000002074000020FEE7FEE7FEE7FEE79D
:102BF000FEE7FEE7FEE7FEE7FEE7FEE7F0B4A64BE2
:102C00001B78062B1BD0A54AD2F8883043F47003FA
:102C1000C2F88830BFF34F8FBFF36F8F4FF0102390
:102C2000D3F80022002AC0F20581D3F80432002B29
:102C3000C0F200819A4B9B4A1A60F0BC70479A4BD5
:102C40001B681E07DFD1994B1B6803F0F003302B84
:102C500002D1974B974A1A60944B1B6803F0F0021D
:102C6000302A00F0D68003F0E003402B00F0D18042
:102C70008E4B1B6803F0F003302B00F0BB808B4BB6
:102C80001B6803F0F002302A00F0A08003F0E0039C
:102C9000402B00F09B80854B1B6803F0F003302B2A
:102CA00000F08680814B1B6803F0F003302B68D066
:102CB0007E4B1B6803F0F003502B10D07B4B1B683E
:102CC00003F0F002302A03D003F0E003402B9AD146
:102CD000794B7A4A1B6803F04F03136093E74FF078
:102CE0008052774BD2F80414C3F82015D2F8081498
:102CF000C3F82415D2F80C14C3F82815D2F8101410
:102D0000C3F82C15D2F81414C3F83015D2F81814DF
:102D1000C3F83415D2F81C14C3F84015D2F82014A7
:102D2000C3F84415D2F82414C3F84815D2F828146F
:102D3000C3F84C15D2F82C14C3F85015D2F830143F
:102D4000C3F85415D2F83414C3F86015D2F8381407
:102D5000C3F86415D2F83C14C3F86815D2F84014CF
:102D6000C3F86C15D2F844244B49C3F870250A788F
:102D7000062A7FF448AF4C4B1B681B077FF443AF18
:102D80009CE7454B4F491B784F4D5048504A05270B
:102D90000F60012600243F21062B2E600460116085
:102DA0007FF431AF404B1B681A077FF42CAF7FE7ED
:102DB000394B484A1B780321062B11607FF423AF5F
:102DC000394B1B6819077FF41EAF6BE7324B1B783A
:102DD0004FF080420021062BC2F80C11C2F81011EE
:102DE000C2F838157FF40FAF2F4B1B6818077FF41C
:102DF0000AAF50E73849284ACB68127823F080732D
:102E0000062ACB60B4D1284B1B681C077FF4FBAEAD
:102E100035E7324A204B12681B783149C2F34232FF
:102E2000062B0A607FF4EFAE1F4B1B681D077FF473
:102E3000EAAE1DE72B4B0122C3F80425D3F800248A
:102E4000002AFBD04FF0102315222649C3F8002298
:102E5000D1F80034002BFBD04FF01023152221496C
:102E6000C3F80422D1F800241E4B002AFAD0002215
:102E7000C3F80425D3F80024002AFBD0BFF34F8FFA
:102E80000649194BCA6802F4E0621343CB60BFF3F2
:102E90004F8F00BFFDE700BFE00F00F000ED00E046
:102EA000640000200090D003E40F00F0E80F00F071
:102EB00074C007400DF0ADBA58020010E40E004097
:102EC00000C0004010560040885600401856004090
:102ED00014560040A0050040F0ED00E04402001050
:102EE0003C05004000E001400400FA0510B5431E17
:102EF0000A44914204D011F8014B03F8014FF8E75E
:102F000010BD0000F8B500BFF8BC08BC9E46704775
:102F1000F8B500BFF8BC08BC9E4670470000002012
:102F2000546D725100000000546D7220537663009E
:102F3000111213144C454430000000004C4544313C
:082F4000000000000000000089
:082F480014D5FF7F0100000019
:102F50000000000000000000000000000000000071
:102F60000000000000000000000000000000000061
:102F70000000000000000000000000000000000051
:102F80000000000000000000000000000000000041
:102F90000000000000000000000000000000000031
:102FA0000000000000000000000000000000000021
:102FB000FFFFFFFF0090D003250400000104000084
:042FC000000000000D
:0400000300002BC10D
:00000001FF
